:100000000C94E2000C940A010C940A010C940A016D
:100010000C940A010C940A010C940A010C940A0134
:100020000C940A010C940A010C9485060C943D076B
:100030000C940A010C940A010C940A010C940A0114
:100040000C940A010C940A010C940A010C940A0104
:100050000C940A010C940A010C940A010C943B06BE
:100060000C940A010C940A010C940A010C940A01E4
:100070000C940A010C940A010C940A010C940A01D4
:100080000C940A010C940A010C940A010C940A01C4
:100090000C940A010C940A010C940A010C940A01B4
:1000A0000C940A010C940A010C940A010F0212022A
:1000B00001020502090233023302330216021A0258
:1000C0001E022402280233022E02080B0002020242
:1000D00001000904000001020200000524001001D3
:1000E0000524010101042402060524060001070578
:1000F000810310004009040100020A000000070506
:1001000002024000000705830240000004030904C6
:1001100012010002EF02014082820132000101025D
:100120000301556E6B6E6F776E005865614C6F758D
:1001300053204A6F79737469636B000000000025D7
:100140000028002B002E00310000000000240027B2
:10015000002A002D003000000000002300260029A6
:10016000002C002F0004040404040304050202020E
:100170000204030202020206060606060604040240
:100180000202040404080201104080401020408054
:1001900040800802040180402010020110801020DD
:1001A0004040200000000200090F0000030401008D
:1001B0000C00000000000000000000000000000033
:1001C0000000F20B11241FBECFEFDAE0DEBFCDBF7F
:1001D00011E0A0E0B1E0E4E9FEE102C005900D927B
:1001E000A434B107D9F722E0A4E4B1E001C01D9224
:1001F000A033B207E1F710E0C2EED0E004C02197CF
:10020000FE010E94FF0DC13ED107C9F70E94580AA6
:100210000C94480F0C94000020917201211103C02E
:100220008FEF9FEF08955FB7F89422E02093E900E5
:100230002091F20030E01216130614F421E030E0B1
:10024000422FFC0184E6415038F0289880937101D8
:100250009091F1009193F7CF2115310521F0809114
:10026000F200882319F05FBFC90108958BE68093DF
:10027000E800F9CFCF92DF92EF92FF920F931F9396
:10028000CF93DF936C017A018B01C0E0D0E0CE15F3
:10029000DF0581F0D8016D918D01D601ED91FC91C2
:1002A0000190F081E02DC6010995892B11F021966E
:1002B000EECF7E01C701DF91CF911F910F91FF908B
:1002C000EF90DF90CF900895CF93DF931F92CDB73B
:1002D000DEB76983DC01ED91FC910280F381E02DB2
:1002E00041E050E0BE016F5F7F4F09950F90DF91B5
:1002F000CF91089583E08093E9008091F2008823F4
:1003000019F08AE38093E8000895CF93DF931F925A
:10031000CDB7DEB7FC018485958597FD05C02FEF2D
:100320003FEF358724870BC0CE0101960E940C0158
:10033000019719F4898190E002C08FEF9FEF0F9031
:10034000DF91CF9108950F931F93CF93DF931F9267
:10035000CDB7DEB78C01FC018485958597FF0EC073
:10036000CE0101960E940C01019719F4898190E059
:1003700002C08FEF9FEFF80195878487F80184858D
:1003800095850F90DF91CF911F910F910895FC01FA
:100390008485958597FD0BC09FB7F89482E0809384
:1003A000E9008091F2009FBF90E0019608959FB709
:1003B000F89482E08093E9008091F2009FBF90E082
:1003C0000895089580E090E0089590E0FC01ED55D7
:1003D000FE4F4491FC01EC57FE4F2491FC01EB5978
:1003E000FE4F8491882309F44DC04423E1F150E08D
:1003F000FA013197EF30F105B0F5EA5AFF4F0C944E
:10040000FF0D909180009F7707C0909180009F7DA5
:1004100003C090918000977F9093800024C094B592
:100420009F7702C094B59F7D94BD1DC090919000B0
:100430009F7707C0909190009F7D03C0909190009E
:10044000977F909390000FC09091C0009F7703C05A
:100450009091C0009F7D9093C00005C09091C20014
:10046000977F9093C200E82FF0E0EE0FFF1FE95A4C
:10047000FE4FA591B491EC91E22381E090E021F44C
:1004800080E0089580E090E00895409152015091FD
:100490005301209150013091510142175307B4F498
:1004A0009091E8009570E1F39091E80092FD19C0F9
:1004B0008093F100809152019091530101968F73C6
:1004C0009927892B19F48EEF8093E80080915201CF
:1004D000909153010196909353018093520181E0D2
:1004E000089580E00895DF92EF92FF920F931F939B
:1004F000CF93DF93D82EF92EE42E062F10E0C801FB
:100500000196880F0E94450283E00E944502CD2D8E
:10051000DF2D0C0F1D1FC017D10789F0E7FE03C0A8
:10052000FE01849101C088810E944502F82E80E07E
:100530000E9445028F2121968111EDCF01C081E0FB
:10054000DF91CF911F910F91FF90EF90DF90089571
:10055000DF92EF92FF920F931F93CF93DF93D82EEA
:100560008A017B01E40EF51EEB01CE15DF0571F06B
:10057000D7FE03C0FE01849101C088810E9445021C
:1005800021968111F2CF8FEF9FEF01C0C801DF915B
:10059000CF911F910F91FF90EF90DF9008952FB7AB
:1005A000F89487708093E9009091E800892F807219
:1005B00095FF04C09091F20080E4891B2FBF08953D
:1005C00083E00E94CF0290E00895615030F02091C6
:1005D000F100FC0120830196F8CF289884E68093EF
:1005E00071010895DC01FB0112968C91129790E045
:1005F0002481358182179307D1F491818081813ADA
:1006000031F481E0913091F0933089F411C081325E
:1006100071F49B3021F482811F968C9305C09A302F
:1006200031F4828150968C9381E00895089580E0A2
:100630000895DC01FB0188E4808389E4818384E4FC
:1006400082831D969C911D979F709F5B93831D963F
:100650008D919C911E9724E0969587952A95E1F7B8
:100660008F708F5B848385E00895EF92FF920F93E4
:100670001F93CF93DF93FB012081213869F52381FC
:10068000223251F5DC0112962C9130E044815581E3
:100690004217530709F58C01FC01C385D485E12C71
:1006A000F12C209799F04C815D816A817B818E814C
:1006B000811180E80E94A8028F3FFFEF9F0779F029
:1006C000E80EF91E0990D881C02DEBCF81E0D8014A
:1006D0001F968C93C70105C080E090E002C08FEFA9
:1006E0009FEFDF91CF911F910F91FF90EF900895B1
:1006F000CF93DF93CDB7DEB769970FB6F894DEBF1F
:100700000FBECDBFFC01DB018C918F5F8C93BE01CE
:100710006F5F7F4F89E1DB011D928A95E9F729E040
:10072000298384E08A8391E09D8383E08E832A87F6
:1007300021E22B879C879D879F8722E2288B27E0D9
:100740002B8B25E02C8B8E8B20E430E0388F2F8B89
:10075000998F82818B8395858685998B8A8B8381FE
:1007600080688D8B49E150E080E00E94A802699684
:100770000FB6F894DEBF0FBECDBFDF91CF910895C5
:10078000FC0182818F5BFB01808381E008957F9271
:100790008F929F92AF92BF92CF92DF92EF92FF9291
:1007A0000F931F93CF93DF93C82E8B017A01809113
:1007B0007201811103C08FEF9FEF70C080915601CD
:1007C00080FF05C08091E00082608093E000CE2D24
:1007D000DF2DD12C8AEFB82E8C2D8770982E8C2D82
:1007E0008072882E8C2D8074782E9AE3A92E209703
:1007F00019F4DD2009F44DC08C2D0E94CF02811127
:1008000006C0BA94BB20B9F20E94E309F0CF282FAA
:1008100030E0C217D3070CF48C2F9FB7F894909256
:10082000E9002091E80025FF32C0282F30E0C21BEC
:10083000D30B882029F08150A0F01092F100FBCF5B
:10084000F801C7FE0AC0815050F044914093F10076
:100850003196F9CF41914093F1008150D8F7020FC2
:10086000131FDD2019F0A092E8000AC08091E80073
:1008700085FD08C0A092E800DD24D394209739F0CC
:10088000D12C05C0209719F47110A092E8009FBFE9
:10089000AECF5D9884E680935501C701DF91CF917B
:1008A0001F910F91FF90EF90DF90CF90BF90AF908E
:1008B0009F908F907F9008957F928F929F92AF929A
:1008C000BF92CF92DF92EF92FF920F931F93CF933D
:1008D000DF93CDB7DEB7ADB6BEB68091DB012DB7E5
:1008E0003EB7281B31090FB6F8943EBF0FBE2DBF8F
:1008F0008DB79EB701966C01E090AA01F12C809112
:10090000A6019091A701D601FC019F01281B390B7C
:100910002E153F051CF421912D93F7CF8091AB014B
:10092000882369F18091A2019091A30197FD0AC0EB
:1009300068E671E00E94EB0D6DE270E00E94EB0D45
:10094000262F01C028E08091A4019091A50197FD78
:1009500009C068E671E00E94EB0D6DE270E00E9454
:10096000EB0D01C068E0F601EE0DFF1D30E1639F65
:10097000C0011124822B8083C70101967C0186016E
:100980000E0D1F1D2091B0013091B1014091AE01BB
:100990005091AF0160918C0170918D018091AC01FB
:1009A00081700E94FD09E80EF91E86010E0D1F1DC3
:1009B0002091B4013091B5014091B2015091B30141
:1009C00060918E0170918F018091AC01869581704C
:1009D0000E94FD09E80EF91E86010E0D1F1D2091D3
:1009E000B8013091B9014091B6015091B7016091C1
:1009F0009001709191018091AC0182FB882780F970
:100A00000E94FD09E80EF91E86010E0D1F1D2091A2
:100A1000BC013091BD014091BA015091BB01609180
:100A20009201709193018091AC0183FB882780F93A
:100A30000E94FD09E80EF91E86010E0D1F1D209172
:100A4000C0013091C1014091BE015091BF01609140
:100A50009401709195018091AC01829581700E9402
:100A6000FD09E80EF91E86010E0D1F1D2091C4011F
:100A70003091C5014091C2015091C301609196012E
:100A8000709197018091AC0185FB882780F90E94C5
:100A9000FD09E80EF91E86010E0D1F1D2091C801EB
:100AA0003091C9014091C6015091C70160919A01EE
:100AB00070919B018091AD0181700E94FD09E80E4B
:100AC000F91E86010E0D1F1D2091CC013091CD0124
:100AD0004091CA015091CB016091980170919901A8
:100AE0008091AD01869581700E94FD09E80EF91E86
:100AF00086010E0D1F1D2091D0013091D101409132
:100B0000CE015091CF0160919C0170919D01809127
:100B1000AD0182FB882780F90E94FD09E80EF91ECD
:100B200086010E0D1F1D2091D4013091D5014091F9
:100B3000D2015091D30160919E0170919F018091EB
:100B4000AD0183FB882780F90E94FD098E0D9F1D52
:100B50008601080F191F2091D8013091D9014091C9
:100B6000D6015091D7016091A0017091A1018091AF
:100B7000AD01829581700E94FD090091DB0110E0BA
:100B80007090DA0180918401811105C00E947B0977
:100B900081E08093840148019FEF891A990AEDB79B
:100BA000FEB7E819F9090FB6F894FEBF0FBEEDBF06
:100BB0002DB73EB72F5F3F4F79017182A801B60173
:100BC000C90101960E943F0F80917601A401B701EF
:100BD00080640E94C7030FB6F894BEBE0FBEADBEC0
:100BE000DF91CF911F910F91FF90EF90DF90CF9009
:100BF000BF90AF909F908F907F900895CF93DF9399
:100C0000EC0180910B01882331F083E00E94C7033F
:100C10001816190634F081E090E09B838A8380E007
:100C200090E0DF91CF9108950E943A0F3FB7F8947A
:100C300080916D0190916E01A0916F01B091700152
:100C400026B5A89B05C02F3F19F00196A11DB11D27
:100C50003FBFBA2FA92F982F8827820F911DA11D62
:100C6000B11DBC01CD0142E0660F771F881F991F9F
:100C70004A95D1F708951F920F920FB60F92112443
:100C80002F933F938F939F93AF93BF93809169016D
:100C900090916A01A0916B01B0916C013091680153
:100CA00023E0230F2D3720F40196A11DB11D05C0AF
:100CB00026E8230F0296A11DB11D209368018093A1
:100CC000690190936A01A0936B01B0936C018091CC
:100CD0006D0190916E01A0916F01B091700101962C
:100CE000A11DB11D80936D0190936E01A0936F01C2
:100CF000B0937001BF91AF919F918F913F912F91D0
:100D00000F900FBE0F901F9018951F920F920FB665
:100D10000F9211248F939F938091E1009091E100B5
:100D2000937F9093E10083FF0FC01092E90091E060
:100D30009093EB001092EC0092E39093ED001092F0
:100D4000720198E09093F00082FF20C093E09093AE
:100D5000E9009091F200992319F09AE39093E8004A
:100D600090915501992339F09091550191509093AC
:100D70005501992389F190917101992339F090914E
:100D80007101915090937101992341F184FF10C03A
:100D90008091E2008E7E81608093E2008091E1008C
:100DA0008F7E8093E100809156018E7E806111C01C
:100DB00080FF16C08091E2008E7E80618093E20009
:100DC0008091E1008E7E8093E100809156018E7EBD
:100DD00081608093560104C05D9ACDCF289AD6CF0A
:100DE0009F918F910F900FBE0F901F90189580913B
:100DF000480181110DC082E08093440184E080931A
:100E00004501109247011092460181E0809348010C
:100E100084E491E008950F931F93CF93DF931F9283
:100E2000CDB7DEB782E0898342E450E06AEC70E03F
:100E300080E80E94A8020E94F706DC0112960D913C
:100E40001C9113970115110589F0D801ED91FC91C2
:100E50000280F381E02DBE016F5F7F4FC8010995CD
:100E600097FD04C0F80100851185ECCF89810F90B2
:100E7000DF91CF911F910F9108951F920F920FB69E
:100E80000F921124CF92DF92EF92FF920F931F9354
:100E90002F933F934F935F936F937F938F939F9382
:100EA000AF93BF93EF93FF93CF93DF93CDB7DEB7AD
:100EB0006C97DEBFCDBF1092E9008091E80083FF00
:100EC000FBC168E0CE0145960E94E50282EF809367
:100ED000E8008D8987FF05C09091E80090FFFCCF66
:100EE00003C09EEF9093E800982F907609F0C6C05B
:100EF0009E894F89588D2F89F88C91110CC08038AC
:100F000029F4809157018093F10002C01092F10002
:100F10001092F10045C1913051F4811141C141302D
:100F2000510509F03DC1809157018D7F0BC0933071
:100F300061F4811135C14130510509F031C1809111
:100F400057018260809357012BC1953049F48091FD
:100F5000E80080FFFCCF822F80688093E30020C1EF
:100F6000963009F05EC00B8D1C8D22E01092E900D6
:100F70001092530110925201F21232C0109251019C
:100F8000109250010E940B0799E0BE016F5F7F4FE6
:100F9000DB01E92F1D92EA95E9F79983FA8291E046
:100FA0009E8390EA98879AEF998720915201309119
:100FB0005301275F3F4F3C832B838D831092E900C1
:100FC000109253011092520110935101009350015D
:100FD00049E050E080E00E94A8020E940B07E0C0B8
:100FE00010935101009350010E94F706DC01129604
:100FF0000D911C9113970115110509F4BBC0D8017F
:10100000ED91FC910480F581E02DBE016B5E7F4F78
:10101000C8010995009709F0C7C0F801008511853E
:10102000EACF973009F445C1983021F481E08093EC
:10103000F100B6C0993009F0B3C0837009F039C12E
:10104000EDE0F1E081E031E096E32081211109C07B
:101050008EE78093EA001092EA008F8980937201F4
:101060009FC08093E9003093EB0021912093EC0026
:101070009093ED008F5F873041F7EACF8B8D9C8D89
:101080001092E90010925301109252019093510175
:1010900080935001898D811153C08E899D89913A29
:1010A00049F4813209F005C147E050E064E071E0A5
:1010B00080E0BBC0913209F0FCC0833269F48F89B3
:1010C000988DA0E0B0E08093000190930101A0937F
:1010D0000201B093030164C0803269F48091E8009A
:1010E00082FFFCCF67E084E091E00E94E5028BEF95
:1010F0008093E80055C0823209F052C08F898093F6
:101100000B01EEEFFFE7859194918B3F9C4D19F019
:10111000E0E0F8E002C0EEEFFAE080910401909187
:101120000501A0910601B0910701803B9440A10503
:10113000B10509F09EC080910B0180FF79C099C074
:101140000E94F706FC01028113810115110509F4C3
:10115000B0C0D801ED91FC910190F081E02DBE016D
:101160006B5E7F4FC801099581111AC0F801008597
:101170001185EBCFF1E0FF1609F44EC0F3E0FF124A
:1011800098C08F89882309F44AC0823089F440E8E6
:1011900060E18AE291E00E947302882309F489C029
:1011A0008EEF8093E80088C018161906CCF381C032
:1011B000813029F440E867E082E291E0ECCF8330AF
:1011C00009F077C00E94F706DC011296ED90FC90C2
:1011D00013978E010F5F1F4F6801E114F10479F03E
:1011E000D701ED91FC910680F781E02DB801C70190
:1011F0000995080F111DF701E084F184EECFD801A5
:101200001C92F60101900020E9F73197BF016C199B
:101210007D0940E0C601BFCF60E171E002C06CE033
:1012200071E0FB01449150E080E80E94A802B8CF31
:10123000EE3F2AE0F20751F0808191818737A7E7DE
:101240009A0721F09093FF0A8093FE0A87E797E7B9
:101250009183808380916000809354019BE088E1BA
:101260000FB6F894A895809360000FBE909360002D
:1012700097CF808191818737974709F091CFA895C3
:101280008091600088618093600080915401809318
:101290006000EE3FBAE0FB0739F08091FE0A9091C2
:1012A000FF0A918380837CCF1092FF0A1092FE0A7E
:1012B00077CF81E28093EB006C960FB6F894DEBF97
:1012C0000FBECDBFDF91CF91FF91EF91BF91AF9155
:1012D0009F918F917F916F915F914F913F912F914E
:1012E0001F910F91FF90EF90DF90CF900F900FBE66
:1012F0000F901F90189581E080937701809378017B
:101300002DE731E030937A012093790110927C012E
:1013100010927B0129E231E0309374012093730134
:1013200010927F0110927E01109281011092800133
:10133000809382018093830181EC80937D010E94E0
:10134000F706FC0121818091770190E0820F911DC9
:101350000897C4F5A281B381109729F483E791E03F
:10136000938382830EC018968D919C911997009754
:1013700011F0DC01F8CF83E791E019969C938E93EE
:101380001897808180937501818180937601908187
:1013900080917801890F808380E09091770189178F
:1013A00088F4A0917901B0917A01A80FB11D9C91A8
:1013B000A181B0E0A45FBE4F9C9391819F5F918318
:1013C0008F5FEBCF0895CF92DF92EF92FF920E9452
:1013D00016066B017C010E941606DC01CB018C19FC
:1013E0009D09AE09BF09883E9340A105B10598F358
:1013F000FF90EF90DF90CF900895CF92DF92EF9221
:10140000FF920F931F93CF93DF93D901E801421707
:1014100053071CF0FA01690102C06A01F90188232F
:10142000E1F1CB016C157D050CF4C6019F018E170F
:101430009F070CF49C01A417B50734F4CF01821B5D
:10144000930B9C012C0D3D1D0D2C000CEE08FF088C
:10145000C901330FAA0BBB0B9C01AD012C193D092F
:101460004E095F09AEEFBFEF0E94AF0D8F01FF0F76
:10147000220B330BA90198012C193D094E095F0974
:101480000E94900DDA01C9018F5F9F47A109B10940
:101490008883998382E090E002C080E090E0DF9151
:1014A000CF911F910F91FF90EF90DF90CF90089513
:1014B000789484B5826084BD84B5816084BD85B52F
:1014C000826085BD85B5816085BD80916E0081603B
:1014D00080936E00109281008091810082608093E1
:1014E00081008091810081608093810080918000E3
:1014F0008160809380008091910082608093910050
:101500008091910081608093910080919000816032
:10151000809390008091C10084608093C10080918D
:10152000C10082608093C1008091C100816080937E
:10153000C1008091C30081608093C3008091C0008E
:1015400082608093C0008091C20081608093C2005D
:1015500080917A00846080937A0080917A00826022
:1015600080937A0080917A00816080937A008091E4
:101570007A00806880937A0010927201109257016D
:10158000109256018091D70081608093D70080EA45
:101590008093D80089B5806189BD89B5826089BD95
:1015A00009B400FEFDCF0E94E3098091D8008F7C32
:1015B00080618093D8008091E000807F8093E0007C
:1015C0008091E1008E7E8093E1008DE08093E200C7
:1015D000559A209AA9E1B1E08D9190E0FC01EC5779
:1015E000FE4F2491FC01EB59FE4F84918823C9F0F2
:1015F00090E0880F991FFC01E75BFE4F45915491E5
:10160000FC01E55CFE4FC591D4919FB7F894FA01B7
:101610008081322F309583238083E8812E2B28838D
:101620009FBFF1E0A532BF07B9F62FEF3FEF309330
:10163000AF012093AE0181E090E09093B1018093DF
:10164000B0013093B3012093B2019093B501809320
:10165000B4018093A8010E945C04812C912C540158
:10166000839490E0E92E90E0F92ECCE5D1E009E1F9
:1016700011E0C12CD12CF80181918F010E94E5016C
:101680009C0177247394892B09F0712C888178163A
:10169000C9F19091A901232BF9F0C916D0F4E0917A
:1016A000A601F091A7018C2D8770A501940104C0BB
:1016B000220F331F441F551F8A95D2F7DA01C90143
:1016C00080959081892380838091A80181110E9457
:1016D0005C04DD24D39416C0C916D8F7E091A601A6
:1016E000F091A7018C2D8770A501940104C0220FF1
:1016F000331F441F551F8A95D2F7DA01C901208193
:10170000822BE1CF7992C39438E0C312B4CF8EE03C
:101710000E94E501EC018FE00E94E501AC01CD2BB8
:1017200051F401E010E0892B11F400E010E0119574
:101730000195110907C021E090E0452B09F020E058
:10174000022F192F8AE00E94E5013C0180E10E94EE
:10175000E501892B51F4C1E0D0E0672811F4C0E025
:10176000D0E0D195C195D10907C091E080E067280C
:1017700009F090E0C92FD82F80915A0190915B0118
:101780008017910759F010938D0100938C0180917F
:10179000A80181110E945C04DD24D394809158013A
:1017A000909159018C179D0759F0D0938F01C093E8
:1017B0008E018091A80181110E945C04DD24D394E4
:1017C00010935B0100935A01D0935901C0935801C3
:1017D000D1100E945C04E114F10409F446CF0E9488
:1017E000000043CFCF92DF92EF92FF921F93CF93EF
:1017F000DF93CDB7DEB7C659D1090FB6F894DEBF77
:101800000FBECDBF1092DF011092DE0188EE93E093
:10181000A0E0B0E08093E0019093E101A093E201A9
:10182000B093E30185E391E09093DD018093DC01C7
:101830008FEF9FEF9093E9018093E8011092A70149
:101840001092A6011092AA011092AF011092AE015F
:101850008FEF93E09093B1018093B0011092B301A8
:101860001092B2019093B5018093B4011092B70128
:101870001092B6019093B9018093B8011092BB0108
:101880001092BA019093BD018093BC011092BF01E8
:101890001092BE019093C1018093C0011092C301C8
:1018A0001092C2019093C5018093C4011092C701A8
:1018B0001092C6019093C9018093C8011092CB0188
:1018C0001092CA019093CD018093CC011092CF0168
:1018D0001092CE019093D1018093D0011092D30148
:1018E0001092D2019093D5018093D4011092D70128
:1018F0001092D6019093D9018093D80195E09093EE
:10190000DA0128E02093A9011092AB0183E08093D3
:10191000AC011092AD01998311E01A8389E08B83A9
:1019200034E03C8341EA4D831E8335E83F8398874A
:1019300099878A8739E13B871C8739E23D872E8763
:1019400035E13F87188A35E2398B1A8B65E76B8B57
:101950001C8B55E95D8B2E8B25E52F8B188E25E68C
:10196000298F1A8E31E83B8F22E02C8F9D8F1E8F9E
:101970008F8F18A396E199A31AA390E89BA396E2F0
:101980009CA39FEF9DA39FE79EA36FA390E198A7C1
:1019900059A72AA74BA71CA68DA790E39EA78FA7A0
:1019A00081E388AB39AB2AAB80EC8BAB8CAB84E3A7
:1019B00090E00E94190E6C0184E3FE013196D6017D
:1019C00001900D928A95E1F787E090E00E94190E50
:1019D0007C01FC0111821082D382C28284E390E0F8
:1019E00095838483168280918401811104C00E94B2
:1019F0007B0910938401E0917E01F0917F01309783
:101A000029F4F0927F01E0927E0108C080819181EB
:101A1000009711F0FC01FACFF182E0822091800161
:101A200030918101F70184819581820F931F9093FA
:101A30008101809380019091A901892F86958695D7
:101A40008695977009F08F5F8093AA011091AA0183
:101A5000812F90E00E94190E9093A7018093A60118
:101A600081E09091AB01911101C080E01C5F180FE3
:101A70001093DB0110928D0110928C0110928F0156
:101A800010928E0110929101109290011092930188
:101A90001092920110929501109294011092970168
:101AA00010929601109299011092980110929B0148
:101AB00010929A0110929D0110929C0110929F0128
:101AC00010929E011092A1011092A0018FEF9FEF42
:101AD0009093A3018093A2019093A5018093A40108
:101AE00080E090E02091AA0130E0821793074CF447
:101AF000E091A601F091A701E80FF91F108201966D
:101B0000F1CFCA56DF4F0FB6F894DEBF0FBECDBF80
:101B1000DF91CF911F91FF90EF90DF90CF900895CC
:101B2000052E97FB1EF400940E94A70D57FD07D0C9
:101B30000E94BA0D07FC03D04EF40C94A70D5095EB
:101B40004095309521953F4F4F4F5F4F08959095A9
:101B50008095709561957F4F8F4F9F4F08950E949C
:101B6000DC0DA59F900DB49F900DA49F800D911D3D
:101B700011240895A1E21A2EAA1BBB1BFD010DC062
:101B8000AA1FBB1FEE1FFF1FA217B307E407F5072D
:101B900020F0A21BB30BE40BF50B661F771F881F09
:101BA000991F1A9469F760957095809590959B019F
:101BB000AC01BD01CF010895A29FB001B39FC00148
:101BC000A39F700D811D1124911DB29F700D811D69
:101BD0001124911D089597FB072E16F4009407D049
:101BE00077FD09D00E94050E07FC05D03EF49095C4
:101BF00081959F4F0895709561957F4F0895EE0FE1
:101C0000FF1F0590F491E02D0994AA1BBB1B51E125
:101C100007C0AA1FBB1FA617B70710F0A61BB70B5C
:101C2000881F991F5A95A9F780959095BC01CD0101
:101C300008950F931F93CF93DF938230910510F493
:101C400082E090E0E0912E02F0912F0220E030E05F
:101C5000A0E0B0E0309719F14081518102811381F9
:101C600048175907C8F08417950769F4109731F0A1
:101C700012960C93129713961C9327C000932E0272
:101C800010932F0222C02115310519F04217530776
:101C900018F49A01BD01EF01DF01F801DBCF211536
:101CA0003105F9F0281B390B2430310580F48A8185
:101CB0009B816115710521F0FB019383828304C030
:101CC00090932F0280932E02FE01329644C0FE01B3
:101CD000E20FF31F819391932250310939832883B6
:101CE0003AC020912C0230912D02232B41F42091F7
:101CF00015013091160130932D0220932C02209172
:101D00001301309114012115310541F42DB73EB76F
:101D10004091170150911801241B350BE0912C02C2
:101D2000F0912D02E217F307A0F42E1B3F0B2817AA
:101D3000390778F0AC014E5F5F4F2417350748F044
:101D40004E0F5F1F50932D0240932C02819391936D
:101D500002C0E0E0F0E0CF01DF91CF911F910F9141
:101D60000895CF93DF93009709F481C0FC01329767
:101D700013821282A0912E02B0912F02109781F44B
:101D800020813181820F931F20912C0230912D02EE
:101D90002817390751F5F0932D02E0932C0267C004
:101DA000ED0120E030E0CE17DF0740F44A815B818F
:101DB0009E0141155105F1F0EA01F5CFD383C283AD
:101DC00040815181840F951FC817D90759F4888124
:101DD0009981840F951F0296918380838A819B81CC
:101DE000938382832115310529F4F0932F02E09328
:101DF0002E023DC0E901FB83EA8349915991C40F4A
:101E0000D51FEC17FD0761F480819181840F951F28
:101E10000296E90199838883828193819B838A83D7
:101E2000E0E0F0E012968D919C911397009719F0E5
:101E3000FD01DC01F7CF8D919C9111979D012E5FE3
:101E40003F4F820F931F20912C0230912D022817B3
:101E5000390769F4309729F410922F0210922E025C
:101E600002C013821282B0932D02A0932C02DF9144
:101E7000CF91089581E090E0F8940C94480FFB0115
:101E8000DC0102C001900D9241505040D8F70895F6
:041E9000F894FFCFF4
:101E9400FFFFFFFF00E100000000000000C180819F
:101EA4000000000000300280000203040506070859
:101EB400090A100E0F00000000F20278033503191E
:101EC40003000000006401FE05E0027A01C70185F9
:041ED40001A3010065
:2070000055C000006EC000006CC000006AC0000068C0000066C0000064C0000062C0000043
:2070200060C000005EC00000F2C400005AC0000058C0000056C0000054C0000052C00000EE
:2070400050C0000078C000004CC000004AC0000048C0000046C0000044C0000042C00000BE
:2070600040C000003EC000003CC000003AC0000038C0000036C0000034C0000032C0000048
:2070800030C000002EC000002CC000002AC0000028C0000026C0000024C0000022C00000A8
:2070A00020C000001EC000001CC0000011241FBECFEFDAE0DEBFCDBF11E0A0E0B1E0E2E3BC
:2070C000FFE702C005900D92A83AB107D9F711E0A8EAB1E001C01D92AE3BB107E1F78FD30B
:2070E00026C78ECFF89410926F0010928100109285001092840081E085BF15BE47985D9AEB
:20710000289A0C94000008952091B2013091B3012F5F3F4F3093B3012093B201932F37FFA6
:2071200003C08EEF831B982F990F921710F447980895479A08951F920F920FB60F9211246E
:207140002F938F939F93EF93FF9310928500109284008091A8019091A901009741F00197D3
:207160009093A9018093A801892B09F45D9A8091AA019091AB01009741F001979093AB0126
:207180008093AA01892B09F4289AE0E0F0E0859194918F5F9F4F49F08091AC019091AD0151
:2071A00001969093AD018093AC01FF91EF919F918F912F910F900FBE0F901F90189584E0BC
:2071C0008093E9000DC08091E8008B778093E80003C08EB3882351F08091E80082FFF9CFBE
:2071E0008091E80085FFEFCF8091F1000895982F83E08093E9008091E80085FD0DC0809136
:20720000E8008E778093E80003C08EB3882369F08091E80080FFF9CF9093F1005D9884E6CB
:2072200090E09093A9018093A80108954F925F926F927F928F929F92AF92BF92CF92DF921E
:20724000EF92FF920F931F93CF93DF9384E08093E9008091E80082FF57C2289884E690E067
:207260009093AB018093AA01AADF182F853481F48CE49DE19093AD018093AC0107B600FC4B
:20728000FDCFF999FECF81E180935700E89503C0843519F494DF8DE00DC28C34E1F38035F9
:2072A000D1F3843721F484E4A2DF80E003C2813611F489E5FFC18134B1F481DF182F7FDFE3
:2072C00090E0880F991FAA2797FDA095BA2F312F330F20E0442737FD4095542F822B932B68
:2072E000A42BB52BB8C1803711F483E5E3C1833549F4C0E0D1E089917ADF21E0C730D20714
:20730000D1F7D9C1863521F481E371DF80E3D2C1833731F487E86BDF85E969DF8EE1CAC149
:207320008536B9F4E0E0F0E093E085E090935700E89507B600FCFDCF80935700E89507B65D
:2073400000FCFDCFE058FF4FA0E7E030FA0771F7A2CF823739F4E1E0F0E089E08093570024
:207360008491A8C1863439F4E0E0F0E089E08093570084919FC18E3439F4E3E0F0E089E0E5
:2073800080935700849196C1813539F4E2E0F0E089E08093570084918DC1823631F489E521
:2073A00026DF80E024DF80E885C1823419F0873609F0E5C01092AD011092AC0100DF082FE8
:2073C000FEDEF82EFCDE682E8554823008F071C1902F80E0CF2DD0E0C82BD92B10926F00B3
:2073E000173609F04BC081E180935700E895DD24CC24C3943FC0E090AE01F090AF010091CC
:20740000B0011091B101B6E46B16D9F4ED2DF0E0EE29FF29E4918E2FEADEDD2081F082E08D
:2074200090E0A0E0B0E0E80EF91E0A1F1B1FE092AE01F092AF010093B0011093B101DC2470
:2074400018C0D801C701B695A7959795879559D5CEDE82E090E0A0E0B0E0E80EF91E0A1FF2
:207460001B1FE092AE01F092AF010093B0011093B1012197209709F0BECF7DC08090AE01F5
:207480009090AF01A090B001B090B10196E4691609F05DC083E0F40180935700E89507B63E
:2074A00000FCFDCF54C0F6E46F1661F5772031F1E090AE01F090AF010091B0011091B1019E
:2074C0007EDED82ECC24852D90E08C299D29F7010C0140925700E895112482E090E0A0E08B
:2074E000B0E0E80EF91E0A1F1B1FE092AE01F092AF010093B0011093B10102C060DE582E1A
:20750000742423C0E090AE01F090AF010091B0011091B10116950795F794E79450DE682FFA
:20752000C701F7D48091AE019091AF01A091B001B091B1010296A11DB11D8093AE01909349
:20754000AF01A093B001B093B101219704C05524772444244394209709F0A5CF96E46916B6
:2075600041F485E0F40180935700E89507B600FCFDCF8DE03CDE82E080936F009CC0833492
:2075800071F40091AE011091AF0119DE90E021E0F8010C0120935700E89511247CCE8336C8
:2075A00019F5E090AE01F090AF010091B0011091B10105DEF701E16090E021E00C0120938C
:2075C0005700E895112482E090E0A0E0B0E0E80EF91E0A1F1B1FE092AE01F092AF0100936A
:2075E000B0011093B10157CE8D3661F4E091AE01F091AF0185E080935700E89507B600FCF2
:20760000FDCF49CE823551F4E091AE01F091AF0105911491812FEBDD802F4CC0843421F5FE
:20762000E090AE01F090AF010091B0011091B10116950795F794E794C2DD682FC70169D4DE
:207640008091AE019091AF01A091B001B091B1010296A11DB11D8093AE019093AF01A093D8
:20766000B001B093B10117CE843609F5E090AE01F090AF010091B0011091B101D801C70142
:20768000B695A795979587953CD4B1DD82E090E0A0E0B0E0E80EF91E0A1F1B1FE092AE010A
:2076A000F092AF010093B0011093B10104C08B3111F08FE39CDD83E08093E9009091E8002B
:2076C0008091E8008E778093E80095FF04C010C08EB38823C9F08091E80080FFF9CF809193
:2076E000E8008E778093E80003C08EB3882361F08091E80080FFF9CF84E08093E9008091F1
:20770000E8008B778093E800DF91CF911F910F91FF90EF90DF90CF90BF90AF909F908F90AC
:207720007F906F905F904F9008959091B601892F8F77813249F58091B7018032A1F081328A
:2077400019F5913A09F58091E800877F8093E8008DE091E067E070E00BD28091E8008B770B
:207760008093E8000895913279F48091E800877F8093E8008DE091E067E070E05DD2809192
:20778000E8008E778093E800089582E061EC42E0B5D083E061E842E1B1D084E060E842E1EF
:2077A000ADC084B7877F84BF88E10FB6F89480936000109260000FBE20E880E090E00FB63F
:2077C000F89420936100809361000FBE81E085BF92E095BF3F9A209A559AE1E6F0E02083A1
:2077E000108247985D9A289A109289008AEF8093880090936F0083E080938100F0C0409116
:20780000000850910108109201081092000894B714BE88E10FB6F8948093600010926000D5
:207820000FBE292F30E0F901E270F07091FD18C090FF05C0859194918F5F9F4F81F423FFFF
:207840000FC08091090190910A014817590741F0E0E0F0E0859194918F5F9F4F09F042DC64
:20786000A0DF78941092AD011092AC010CC0DEDC36D38091AC019091AD0181549F4110F00D
:207880001092140141DC80911401882381F78091E00081608093E00025DC80E090E0089598
:2078A000FA01923049F0933061F09130F9F485E191E022E130E01EC087E291E02EE330E04D
:2078C00019C0882329F485E691E024E030E012C0813029F489E691E022E230E00BC0823006
:2078E00029F48DE891E028E130E004C080E090E020E030E091838083C90108958093E9004E
:207900008091EB0081608093EB001092ED006093EC004093ED008091EE00881F8827881F62
:2079200008958091B60188238CF403C08EB38823B1F08091E80082FFF9CF8091E8008B772A
:207940008093E80008958EB3882349F08091E80080FFF9CF8091E8008E778093E800089594
:20796000EF92FF920F931F9345D04CD008ED10E0F80180818F77808380818068808380819B
:207980008F7D808319BC1EBA1092B40180EEE82EF12CF70180818B7F8083F8018081816052
:2079A000808380E060E042E0A9DFE1EEF0E080818E7F8083E2EEF0E0808181608083808144
:2079C00088608083F70180818E7F8083F8018081806180831F910F91FF90EF900895E7ED06
:2079E000F0E08081816080838AE482BF81E08093B501B6CFE8EDF0E080818E7F808310921C
:207A0000E20008951092DA001092E10008951F920F920FB60F9211242F933F934F935F93F6
:207A20006F937F938F939F93AF93BF93EF93FF938091DA0080FF1BC08091D80080FF17C0B2
:207A40008091DA008E7F8093DA008091D90080FF0BC080E189BD82E189BD09B400FEFDCF36
:207A600081E08EBB3BD203C019BC1EBA37D28091E10080FF17C08091E20080FF13C0809138
:207A8000E2008E7F8093E2008091E20080618093E2008091D80080628093D80019BC85E049
:207AA0008EBB1CD28091E10084FF2CC08091E20084FF28C080E189BD82E189BD09B400FEC5
:207AC000FDCF8091D8008F7D8093D8008091E1008F7E8093E1008091E2008F7E8093E20012
:207AE0008091E20081608093E2008091B401882331F48091E30087FD02C081E001C084E067
:207B00008EBBECD18091E10083FF21C08091E20083FF1DC08091E100877F8093E10082E06A
:207B20008EBB1092B4018091E1008E7F8093E1008091E2008E7F8093E2008091E2008061E9
:207B40008093E20080E060E042E0D8DEC7D1FF91EF91BF91AF919F918F917F916F915F9130
:207B60004F913F912F910F900FBE0F901F9018959C014091BC015091BD014617570718F49D
:207B8000F90190E044C06115710511F0AB01F8CF8091E8008E778093E80040E050E0F0CF0F
:207BA0008EB3882309F444C0853009F443C08091E80083FF02C081E008958091E80082FD70
:207BC00031C08091E80080FF22C08091F3009091F200782F60E0292F30E0262B372B07C07A
:207BE00081918093F100415050402F5F3F4F4115510519F02830310598F390E02830310566
:207C000009F491E08091E8008E778093E8004115510531F6992321F605C08EB3882341F075
:207C2000853041F08091E80082FFF7CF80E0089582E0089583E008959C016115710529F47C
:207C40008091E8008B778093E800F90126C08EB3882391F1853091F18091E80083FF02C06C
:207C600081E008958091E80082FFF1CF06C08091F10081936150704059F02091F300809191
:207C8000F200322F20E090E0822B932B892B79F78091E8008B778093E80061157105B9F601
:207CA00005C08EB3882341F0853041F08091E80080FFF7CF80E0089582E0089583E00895C2
:207CC0000F931F93DF93CF9300D0CDB7DEB7E6EBF1E08091F100819381E0EE3BF807C9F792
:207CE00024DD8091E80083FFE4C08091B6019091B701953009F46DC0963040F4913081F1A7
:207D0000913070F0933009F0D4C02AC0983009F4A3C0993009F4B2C0963009F0CAC07CC023
:207D2000803809F4C6C0823809F0C3C08091BA0187708093E9008091EB001092E9002091DB
:207D4000E800277F2093E80090E025E0969587952A95E1F781708093F1001092F10087C0D8
:207D6000882319F0823009F0A4C08F71823009F0A0C08091B801882331F52091BA01277097
:207D800009F497C02093E9008091EB0080FF1BC0933021F48091EB00806213C08091EB0018
:207DA00080618093EB0081E090E002C0880F991F2A95E2F78093EA001092EA008091EB00E5
:207DC00088608093EB001092E9008091E800877F51C0882309F06DC01091B8011F770FB79B
:207DE000F8948091E800877F8093E8009ADD8091E80080FFFCCF8091E3008078812B809398
:207E0000E30080688093E300112311F482E001C083E08EBB0FBF4DC08058823008F049C033
:207E20008091B8019091B9016091BA01AE014F5F5F4F36DDBC01009709F43BC08091E8008E
:207E4000877F8093E80089819A8192DE8091E8008B778093E8002DC0803859F58091E800AA
:207E6000877F8093E8008091B4018093F1008091E8008E778093E80054DD1BC08823C9F4CA
:207E80009091B8019230A8F48091E800877F8093E8009093B40145DD8091B401882331F420
:207EA0008091E30087FD02C081E001C084E08EBB6CDC8091E80083FF0AC08091EB0080624E
:207EC0008093EB008091E800877F8093E8000F900F90CF91DF911F910F91089508951F9360
:207EE0008EB3882361F01091E9001092E9008091E80083FF01C0E4DE17701093E9001F916F
:207F00000895F999FECF92BD81BDF89A992780B50895262FF999FECF1FBA92BD81BD20BDBD
:207F20000FB6F894FA9AF99A0FBE01960895F894FFCF4341544552494E4100777700080031
:207F40000000000000080112011001020000084123360001000201000109023E00020100FF
:207F600080320904000001020201000524001001042402040524060001070582030800FF0C
:207F800009040100020A000000070504021000010705830210000104030904220341007216
:207FA000006400750069006E006F0020004C0065006F006E006100720064006F0000001836
:1A7FC00003410072006400750069006E006F0020004C004C004300000000D7
:00000001FF
